{
  "_format": "hh-sol-artifact-1",
  "contractName": "CareerFair",
  "sourceName": "contracts/CareerFair.sol",
  "abi": [
    {
      "inputs": [],
      "stateMutability": "nonpayable",
      "type": "constructor"
    },
    {
      "inputs": [
        {
          "internalType": "string",
          "name": "companyName",
          "type": "string"
        }
      ],
      "name": "add",
      "outputs": [],
      "stateMutability": "nonpayable",
      "type": "function"
    },
    {
      "inputs": [],
      "name": "enroll",
      "outputs": [],
      "stateMutability": "nonpayable",
      "type": "function"
    },
    {
      "inputs": [],
      "name": "getAttendees",
      "outputs": [
        {
          "internalType": "address[]",
          "name": "",
          "type": "address[]"
        }
      ],
      "stateMutability": "view",
      "type": "function"
    },
    {
      "inputs": [],
      "name": "unenroll",
      "outputs": [],
      "stateMutability": "nonpayable",
      "type": "function"
    }
  ],
  "bytecode": "0x60806040523480156200001157600080fd5b50600280600181540180825580915050600190039060005260206000200160006040518060400160405280600681526020017f416d617a6f6e0000000000000000000000000000000000000000000000000000815250909190915090805190602001906200008192919062000368565b50600280600181540180825580915050600190039060005260206000200160006040518060400160405280600681526020017f476f6f676c65000000000000000000000000000000000000000000000000000081525090919091509080519060200190620000f192919062000368565b50600280600181540180825580915050600190039060005260206000200160006040518060400160405280600581526020017f4170706c65000000000000000000000000000000000000000000000000000000815250909190915090805190602001906200016192919062000368565b50600280600181540180825580915050600190039060005260206000200160006040518060400160405280600981526020017f4d6963726f736f6674000000000000000000000000000000000000000000000081525090919091509080519060200190620001d192919062000368565b50600280600181540180825580915050600190039060005260206000200160006040518060400160405280600481526020017f4d65746100000000000000000000000000000000000000000000000000000000815250909190915090805190602001906200024192919062000368565b50600280600181540180825580915050600190039060005260206000200160006040518060400160405280600681526020017f47656d696e69000000000000000000000000000000000000000000000000000081525090919091509080519060200190620002b192919062000368565b50600280600181540180825580915050600190039060005260206000200160006040518060400160405280600881526020017f5365637572654564000000000000000000000000000000000000000000000000815250909190915090805190602001906200032192919062000368565b50336000806101000a81548173ffffffffffffffffffffffffffffffffffffffff021916908373ffffffffffffffffffffffffffffffffffffffff1602179055506200047d565b828054620003769062000418565b90600052602060002090601f0160209004810192826200039a5760008555620003e6565b82601f10620003b557805160ff1916838001178555620003e6565b82800160010185558215620003e6579182015b82811115620003e5578251825591602001919060010190620003c8565b5b509050620003f59190620003f9565b5090565b5b8082111562000414576000816000905550600101620003fa565b5090565b600060028204905060018216806200043157607f821691505b602082108114156200044857620004476200044e565b5b50919050565b7f4e487b7100000000000000000000000000000000000000000000000000000000600052602260045260246000fd5b610f55806200048d6000396000f3fe608060405234801561001057600080fd5b506004361061004c5760003560e01c806320f3b418146100515780634165a1bb1461005b578063b0c8f9dc14610079578063e65f2a7e14610095575b600080fd5b61005961009f565b005b610063610188565b6040516100709190610b2c565b60405180910390f35b610093600480360381019061008e9190610951565b610216565b005b61009d6103bc565b005b60018015156100ac6104f2565b15151460011515821515146100f6576040518060400160405280601981526020017f73747564656e742063616e277420626520656e726f6c6c65640000000000000081525061012d565b6040518060400160405280601c81526020017f73747564656e74206e6565647320746f20626520656e726f6c6c6564000000008152505b9061016e576040517f08c379a00000000000000000000000000000000000000000000000000000000081526004016101659190610b4e565b60405180910390fd5b5060006101796105c5565b905061018481610697565b5050565b6060600180548060200260200160405190810160405280929190818152602001828054801561020c57602002820191906000526020600020905b8160009054906101000a900473ffffffffffffffffffffffffffffffffffffffff1673ffffffffffffffffffffffffffffffffffffffff16815260200190600101908083116101c2575b5050505050905090565b60008054906101000a900473ffffffffffffffffffffffffffffffffffffffff1673ffffffffffffffffffffffffffffffffffffffff163373ffffffffffffffffffffffffffffffffffffffff16146102a4576040517f08c379a000000000000000000000000000000000000000000000000000000000815260040161029b90610b90565b60405180910390fd5b806000805b600280549050811015610339578280519060200120600282815481106102f8577f4e487b7100000000000000000000000000000000000000000000000000000000600052603260045260246000fd5b9060005260206000200160405161030f9190610b15565b604051809103902014156103265760019150610339565b808061033190610de6565b9150506102a9565b50801561037b576040517f08c379a000000000000000000000000000000000000000000000000000000000815260040161037290610b70565b60405180910390fd5b6002839080600181540180825580915050600190039060005260206000200160009091909190915090805190602001906103b6929190610846565b50505050565b60008015156103c96104f2565b1515146001151582151514610413576040518060400160405280601981526020017f73747564656e742063616e277420626520656e726f6c6c65640000000000000081525061044a565b6040518060400160405280601c81526020017f73747564656e74206e6565647320746f20626520656e726f6c6c6564000000008152505b9061048b576040517f08c379a00000000000000000000000000000000000000000000000000000000081526004016104829190610b4e565b60405180910390fd5b506001339080600181540180825580915050600190039060005260206000200160009091909190916101000a81548173ffffffffffffffffffffffffffffffffffffffff021916908373ffffffffffffffffffffffffffffffffffffffff16021790555050565b6000806000905060005b6001805490508110156105bd573373ffffffffffffffffffffffffffffffffffffffff166001828154811061055a577f4e487b7100000000000000000000000000000000000000000000000000000000600052603260045260246000fd5b9060005260206000200160009054906101000a900473ffffffffffffffffffffffffffffffffffffffff1673ffffffffffffffffffffffffffffffffffffffff1614156105aa57600191506105bd565b80806105b590610de6565b9150506104fc565b508091505090565b6000806000905060005b60018054905081101561068f573373ffffffffffffffffffffffffffffffffffffffff166001828154811061062d577f4e487b7100000000000000000000000000000000000000000000000000000000600052603260045260246000fd5b9060005260206000200160009054906101000a900473ffffffffffffffffffffffffffffffffffffffff1673ffffffffffffffffffffffffffffffffffffffff16141561067c5780915061068f565b808061068790610de6565b9150506105cf565b508091505090565b60018054905081106106a857610843565b60008190505b600180805490506106bf9190610cd1565b8110156107cb57600180826106d49190610c7b565b8154811061070b577f4e487b7100000000000000000000000000000000000000000000000000000000600052603260045260246000fd5b9060005260206000200160009054906101000a900473ffffffffffffffffffffffffffffffffffffffff1660018281548110610770577f4e487b7100000000000000000000000000000000000000000000000000000000600052603260045260246000fd5b9060005260206000200160006101000a81548173ffffffffffffffffffffffffffffffffffffffff021916908373ffffffffffffffffffffffffffffffffffffffff16021790555080806107c390610de6565b9150506106ae565b5060018080805490506107de9190610cd1565b81548110610815577f4e487b7100000000000000000000000000000000000000000000000000000000600052603260045260246000fd5b9060005260206000200160006101000a81549073ffffffffffffffffffffffffffffffffffffffff02191690555b50565b82805461085290610d83565b90600052602060002090601f01602090048101928261087457600085556108bb565b82601f1061088d57805160ff19168380011785556108bb565b828001600101855582156108bb579182015b828111156108ba57825182559160200191906001019061089f565b5b5090506108c891906108cc565b5090565b5b808211156108e55760008160009055506001016108cd565b5090565b60006108fc6108f784610bd5565b610bb0565b90508281526020810184848401111561091457600080fd5b61091f848285610d41565b509392505050565b600082601f83011261093857600080fd5b81356109488482602086016108e9565b91505092915050565b60006020828403121561096357600080fd5b600082013567ffffffffffffffff81111561097d57600080fd5b61098984828501610927565b91505092915050565b600061099e83836109aa565b60208301905092915050565b6109b381610d05565b82525050565b60006109c482610c2b565b6109ce8185610c4e565b93506109d983610c06565b8060005b83811015610a0a5781516109f18882610992565b97506109fc83610c41565b9250506001810190506109dd565b5085935050505092915050565b60008154610a2481610d83565b610a2e8186610c5f565b94506001821660008114610a495760018114610a5a57610a8d565b60ff19831686528186019350610a8d565b610a6385610c16565b60005b83811015610a8557815481890152600182019150602081019050610a66565b838801955050505b50505092915050565b6000610aa182610c36565b610aab8185610c6a565b9350610abb818560208601610d50565b610ac481610ebc565b840191505092915050565b6000610adc601683610c6a565b9150610ae782610ecd565b602082019050919050565b6000610aff601a83610c6a565b9150610b0a82610ef6565b602082019050919050565b6000610b218284610a17565b915081905092915050565b60006020820190508181036000830152610b4681846109b9565b905092915050565b60006020820190508181036000830152610b688184610a96565b905092915050565b60006020820190508181036000830152610b8981610acf565b9050919050565b60006020820190508181036000830152610ba981610af2565b9050919050565b6000610bba610bcb565b9050610bc68282610db5565b919050565b6000604051905090565b600067ffffffffffffffff821115610bf057610bef610e8d565b5b610bf982610ebc565b9050602081019050919050565b6000819050602082019050919050565b60008190508160005260206000209050919050565b600081519050919050565b600081519050919050565b6000602082019050919050565b600082825260208201905092915050565b600081905092915050565b600082825260208201905092915050565b6000610c8682610d37565b9150610c9183610d37565b9250827fffffffffffffffffffffffffffffffffffffffffffffffffffffffffffffffff03821115610cc657610cc5610e2f565b5b828201905092915050565b6000610cdc82610d37565b9150610ce783610d37565b925082821015610cfa57610cf9610e2f565b5b828203905092915050565b6000610d1082610d17565b9050919050565b600073ffffffffffffffffffffffffffffffffffffffff82169050919050565b6000819050919050565b82818337600083830152505050565b60005b83811015610d6e578082015181840152602081019050610d53565b83811115610d7d576000848401525b50505050565b60006002820490506001821680610d9b57607f821691505b60208210811415610daf57610dae610e5e565b5b50919050565b610dbe82610ebc565b810181811067ffffffffffffffff82111715610ddd57610ddc610e8d565b5b80604052505050565b6000610df182610d37565b91507fffffffffffffffffffffffffffffffffffffffffffffffffffffffffffffffff821415610e2457610e23610e2f565b5b600182019050919050565b7f4e487b7100000000000000000000000000000000000000000000000000000000600052601160045260246000fd5b7f4e487b7100000000000000000000000000000000000000000000000000000000600052602260045260246000fd5b7f4e487b7100000000000000000000000000000000000000000000000000000000600052604160045260246000fd5b6000601f19601f8301169050919050565b7f636f6d70616e79206d757374206e6f7420657869737400000000000000000000600082015250565b7f6d7573742062652074686520636f6e7472616374206f776e657200000000000060008201525056fea2646970667358221220a609eb1007dc185a3474d9f96207cc93b28a9f61ed5bf542c840ba275522176164736f6c63430008040033",
  "linkReferences": {},
  "deployedLinkReferences": {}
}